{
  "contractName": "LandRegistry",
  "abi": [
    {
      "anonymous": false,
      "inputs": [
        {
          "indexed": true,
          "internalType": "uint256",
          "name": "id",
          "type": "uint256"
        },
        {
          "indexed": true,
          "internalType": "address",
          "name": "owner",
          "type": "address"
        }
      ],
      "name": "LandRegistered",
      "type": "event"
    },
    {
      "anonymous": false,
      "inputs": [
        {
          "indexed": true,
          "internalType": "uint256",
          "name": "id",
          "type": "uint256"
        },
        {
          "indexed": true,
          "internalType": "address",
          "name": "from",
          "type": "address"
        },
        {
          "indexed": true,
          "internalType": "address",
          "name": "to",
          "type": "address"
        }
      ],
      "name": "LandTransferred",
      "type": "event"
    },
    {
      "inputs": [],
      "name": "landCount",
      "outputs": [
        {
          "internalType": "uint256",
          "name": "",
          "type": "uint256"
        }
      ],
      "stateMutability": "view",
      "type": "function",
      "constant": true
    },
    {
      "inputs": [
        {
          "internalType": "uint256",
          "name": "",
          "type": "uint256"
        }
      ],
      "name": "lands",
      "outputs": [
        {
          "internalType": "uint256",
          "name": "id",
          "type": "uint256"
        },
        {
          "internalType": "string",
          "name": "location",
          "type": "string"
        },
        {
          "internalType": "uint256",
          "name": "area",
          "type": "uint256"
        },
        {
          "internalType": "address",
          "name": "owner",
          "type": "address"
        }
      ],
      "stateMutability": "view",
      "type": "function",
      "constant": true
    },
    {
      "inputs": [
        {
          "internalType": "string",
          "name": "_location",
          "type": "string"
        },
        {
          "internalType": "uint256",
          "name": "_area",
          "type": "uint256"
        }
      ],
      "name": "registerLand",
      "outputs": [],
      "stateMutability": "nonpayable",
      "type": "function"
    },
    {
      "inputs": [
        {
          "internalType": "uint256",
          "name": "_landId",
          "type": "uint256"
        },
        {
          "internalType": "address",
          "name": "_newOwner",
          "type": "address"
        }
      ],
      "name": "transferLand",
      "outputs": [],
      "stateMutability": "nonpayable",
      "type": "function"
    },
    {
      "inputs": [
        {
          "internalType": "uint256",
          "name": "_landId",
          "type": "uint256"
        }
      ],
      "name": "getLandDetails",
      "outputs": [
        {
          "internalType": "string",
          "name": "",
          "type": "string"
        },
        {
          "internalType": "uint256",
          "name": "",
          "type": "uint256"
        },
        {
          "internalType": "address",
          "name": "",
          "type": "address"
        }
      ],
      "stateMutability": "view",
      "type": "function",
      "constant": true
    }
  ],
  "bytecode": "0x608060405234801561001057600080fd5b50610c86806100206000396000f3fe608060405234801561001057600080fd5b50600436106100575760003560e01c8063c798ff7d1461005c578063ce924ed914610078578063d7bce65814610094578063e261f1e5146100b2578063fe0cb7dc146100e5575b600080fd5b61007660048036038101906100719190610816565b610117565b005b610092600480360381019061008d9190610799565b61031d565b005b61009c610446565b6040516100a991906109a7565b60405180910390f35b6100cc60048036038101906100c791906107ed565b61044c565b6040516100dc94939291906109c2565b60405180910390f35b6100ff60048036038101906100fa91906107ed565b610524565b60405161010e93929190610929565b60405180910390f35b813373ffffffffffffffffffffffffffffffffffffffff166001600083815260200190815260200160002060030160009054906101000a900473ffffffffffffffffffffffffffffffffffffffff1673ffffffffffffffffffffffffffffffffffffffff16146101bc576040517f08c379a00000000000000000000000000000000000000000000000000000000081526004016101b390610967565b60405180910390fd5b600073ffffffffffffffffffffffffffffffffffffffff168273ffffffffffffffffffffffffffffffffffffffff16141561022c576040517f08c379a000000000000000000000000000000000000000000000000000000000815260040161022390610987565b60405180910390fd5b60006001600085815260200190815260200160002060030160009054906101000a900473ffffffffffffffffffffffffffffffffffffffff169050826001600086815260200190815260200160002060030160006101000a81548173ffffffffffffffffffffffffffffffffffffffff021916908373ffffffffffffffffffffffffffffffffffffffff1602179055508273ffffffffffffffffffffffffffffffffffffffff168173ffffffffffffffffffffffffffffffffffffffff16857f1080b2f211753e5090f26ef7ffdc6bb3e66a125c7290200d10b502160bb1f56660405160405180910390a450505050565b60008081548092919061032f90610b3b565b9190505550604051806080016040528060005481526020018381526020018281526020013373ffffffffffffffffffffffffffffffffffffffff1681525060016000805481526020019081526020016000206000820151816000015560208201518160010190805190602001906103a7929190610664565b506040820151816002015560608201518160030160006101000a81548173ffffffffffffffffffffffffffffffffffffffff021916908373ffffffffffffffffffffffffffffffffffffffff1602179055509050503373ffffffffffffffffffffffffffffffffffffffff166000547fcb4990052f95f6057496d19524f6c3163f50af9f33f2c15b092928e03414323e60405160405180910390a35050565b60005481565b600160205280600052604060002060009150905080600001549080600101805461047590610b09565b80601f01602080910402602001604051908101604052809291908181526020018280546104a190610b09565b80156104ee5780601f106104c3576101008083540402835291602001916104ee565b820191906000526020600020905b8154815290600101906020018083116104d157829003601f168201915b5050505050908060020154908060030160009054906101000a900473ffffffffffffffffffffffffffffffffffffffff16905084565b60606000806000600160008681526020019081526020016000206040518060800160405290816000820154815260200160018201805461056390610b09565b80601f016020809104026020016040519081016040528092919081815260200182805461058f90610b09565b80156105dc5780601f106105b1576101008083540402835291602001916105dc565b820191906000526020600020905b8154815290600101906020018083116105bf57829003601f168201915b50505050508152602001600282015481526020016003820160009054906101000a900473ffffffffffffffffffffffffffffffffffffffff1673ffffffffffffffffffffffffffffffffffffffff1673ffffffffffffffffffffffffffffffffffffffff16815250509050806020015181604001518260600151935093509350509193909250565b82805461067090610b09565b90600052602060002090601f01602090048101928261069257600085556106d9565b82601f106106ab57805160ff19168380011785556106d9565b828001600101855582156106d9579182015b828111156106d85782518255916020019190600101906106bd565b5b5090506106e691906106ea565b5090565b5b808211156107035760008160009055506001016106eb565b5090565b600061071a61071584610a3f565b610a0e565b90508281526020810184848401111561073257600080fd5b61073d848285610ac7565b509392505050565b60008135905061075481610c22565b92915050565b600082601f83011261076b57600080fd5b813561077b848260208601610707565b91505092915050565b60008135905061079381610c39565b92915050565b600080604083850312156107ac57600080fd5b600083013567ffffffffffffffff8111156107c657600080fd5b6107d28582860161075a565b92505060206107e385828601610784565b9150509250929050565b6000602082840312156107ff57600080fd5b600061080d84828501610784565b91505092915050565b6000806040838503121561082957600080fd5b600061083785828601610784565b925050602061084885828601610745565b9150509250929050565b61085b81610a8b565b82525050565b600061086c82610a6f565b6108768185610a7a565b9350610886818560208601610ad6565b61088f81610c11565b840191505092915050565b60006108a7601283610a7a565b91507f4e6f7420746865206c616e64206f776e657200000000000000000000000000006000830152602082019050919050565b60006108e7601983610a7a565b91507f496e76616c6964206e6577206f776e65722061646472657373000000000000006000830152602082019050919050565b61092381610abd565b82525050565b600060608201905081810360008301526109438186610861565b9050610952602083018561091a565b61095f6040830184610852565b949350505050565b600060208201905081810360008301526109808161089a565b9050919050565b600060208201905081810360008301526109a0816108da565b9050919050565b60006020820190506109bc600083018461091a565b92915050565b60006080820190506109d7600083018761091a565b81810360208301526109e98186610861565b90506109f8604083018561091a565b610a056060830184610852565b95945050505050565b6000604051905081810181811067ffffffffffffffff82111715610a3557610a34610be2565b5b8060405250919050565b600067ffffffffffffffff821115610a5a57610a59610be2565b5b601f19601f8301169050602081019050919050565b600081519050919050565b600082825260208201905092915050565b6000610a9682610a9d565b9050919050565b600073ffffffffffffffffffffffffffffffffffffffff82169050919050565b6000819050919050565b82818337600083830152505050565b60005b83811015610af4578082015181840152602081019050610ad9565b83811115610b03576000848401525b50505050565b60006002820490506001821680610b2157607f821691505b60208210811415610b3557610b34610bb3565b5b50919050565b6000610b4682610abd565b91507fffffffffffffffffffffffffffffffffffffffffffffffffffffffffffffffff821415610b7957610b78610b84565b5b600182019050919050565b7f4e487b7100000000000000000000000000000000000000000000000000000000600052601160045260246000fd5b7f4e487b7100000000000000000000000000000000000000000000000000000000600052602260045260246000fd5b7f4e487b7100000000000000000000000000000000000000000000000000000000600052604160045260246000fd5b6000601f19601f8301169050919050565b610c2b81610a8b565b8114610c3657600080fd5b50565b610c4281610abd565b8114610c4d57600080fd5b5056fea2646970667358221220baa0da444ef85a929fe472b60a89ac4e38b99b6fa5e92747809a277e05f2704464736f6c63430008000033",
  "immutableReferences": {},
  "source": "// SPDX-License-Identifier: MIT\npragma solidity ^0.8.0;\n\ncontract LandRegistry {\n    struct Land {\n        uint256 id;\n        string location;\n        uint256 area;\n        address owner;\n    }\n\n    uint256 public landCount;\n    mapping(uint256 => Land) public lands;\n\n    event LandRegistered(uint256 indexed id, address indexed owner);\n    event LandTransferred(uint256 indexed id, address indexed from, address indexed to);\n\n    modifier onlyOwner(uint256 _landId) {\n        require(lands[_landId].owner == msg.sender, \"Not the land owner\");\n        _;\n    }\n\n    function registerLand(string memory _location, uint256 _area) public {\n        landCount++;\n        lands[landCount] = Land(landCount, _location, _area, msg.sender);\n        emit LandRegistered(landCount, msg.sender);\n    }\n\n    function transferLand(uint256 _landId, address _newOwner) public onlyOwner(_landId) {\n        require(_newOwner != address(0), \"Invalid new owner address\");\n        address previousOwner = lands[_landId].owner;\n        lands[_landId].owner = _newOwner;\n        emit LandTransferred(_landId, previousOwner, _newOwner);\n    }\n\n    function getLandDetails(uint256 _landId) public view returns (string memory, uint256, address) {\n        Land memory land = lands[_landId];\n        return (land.location, land.area, land.owner);\n    }\n} \n\n",
  "sourcePath": "/home/skid-kid/projects/land-registry/contracts/LandRegistry.sol",
  "compiler": {
    "name": "solc",
    "version": "0.8.0+commit.c7dfd78e.Emscripten.clang"
  },
  "schemaVersion": "3.4.16",
  "updatedAt": "2025-01-13T08:44:28.451Z",
  "networkType": "ethereum",
  "devdoc": {
    "kind": "dev",
    "methods": {},
    "version": 1
  },
  "userdoc": {
    "kind": "user",
    "methods": {},
    "version": 1
  }
}