{
  "contractName": "LandRegistry",
  "abi": [
    {
      "anonymous": false,
      "inputs": [
        {
          "indexed": true,
          "internalType": "uint256",
          "name": "id",
          "type": "uint256"
        },
        {
          "indexed": true,
          "internalType": "address",
          "name": "owner",
          "type": "address"
        }
      ],
      "name": "LandRegistered",
      "type": "event"
    },
    {
      "anonymous": false,
      "inputs": [
        {
          "indexed": true,
          "internalType": "uint256",
          "name": "id",
          "type": "uint256"
        },
        {
          "indexed": true,
          "internalType": "address",
          "name": "from",
          "type": "address"
        },
        {
          "indexed": true,
          "internalType": "address",
          "name": "to",
          "type": "address"
        }
      ],
      "name": "LandTransferred",
      "type": "event"
    },
    {
      "inputs": [],
      "name": "landCount",
      "outputs": [
        {
          "internalType": "uint256",
          "name": "",
          "type": "uint256"
        }
      ],
      "stateMutability": "view",
      "type": "function",
      "constant": true
    },
    {
      "inputs": [
        {
          "internalType": "uint256",
          "name": "",
          "type": "uint256"
        }
      ],
      "name": "lands",
      "outputs": [
        {
          "internalType": "uint256",
          "name": "id",
          "type": "uint256"
        },
        {
          "internalType": "string",
          "name": "location",
          "type": "string"
        },
        {
          "internalType": "uint256",
          "name": "area",
          "type": "uint256"
        },
        {
          "internalType": "address",
          "name": "owner",
          "type": "address"
        }
      ],
      "stateMutability": "view",
      "type": "function",
      "constant": true
    },
    {
      "inputs": [
        {
          "internalType": "string",
          "name": "_location",
          "type": "string"
        },
        {
          "internalType": "uint256",
          "name": "_area",
          "type": "uint256"
        }
      ],
      "name": "registerLand",
      "outputs": [],
      "stateMutability": "nonpayable",
      "type": "function"
    },
    {
      "inputs": [
        {
          "internalType": "uint256",
          "name": "_landId",
          "type": "uint256"
        },
        {
          "internalType": "address",
          "name": "_newOwner",
          "type": "address"
        }
      ],
      "name": "transferLand",
      "outputs": [],
      "stateMutability": "nonpayable",
      "type": "function"
    },
    {
      "inputs": [
        {
          "internalType": "uint256",
          "name": "_landId",
          "type": "uint256"
        }
      ],
      "name": "getLandDetails",
      "outputs": [
        {
          "internalType": "string",
          "name": "",
          "type": "string"
        },
        {
          "internalType": "uint256",
          "name": "",
          "type": "uint256"
        },
        {
          "internalType": "address",
          "name": "",
          "type": "address"
        }
      ],
      "stateMutability": "view",
      "type": "function",
      "constant": true
    },
    {
      "inputs": [
        {
          "internalType": "uint256",
          "name": "_landId",
          "type": "uint256"
        }
      ],
      "name": "getPreviousOwners",
      "outputs": [
        {
          "internalType": "address[]",
          "name": "",
          "type": "address[]"
        }
      ],
      "stateMutability": "view",
      "type": "function",
      "constant": true
    }
  ],
  "bytecode": "0x608060405234801561001057600080fd5b50611066806100206000396000f3fe608060405234801561001057600080fd5b50600436106100625760003560e01c8063c798ff7d14610067578063ce924ed914610083578063d7bce6581461009f578063e261f1e5146100bd578063f1a0995c146100f0578063fe0cb7dc14610120575b600080fd5b610081600480360381019061007c9190610b16565b610152565b005b61009d60048036038101906100989190610a99565b6103cf565b005b6100a761058a565b6040516100b49190610d4e565b60405180910390f35b6100d760048036038101906100d29190610aed565b610590565b6040516100e79493929190610d69565b60405180910390f35b61010a60048036038101906101059190610aed565b610668565b6040516101179190610cae565b60405180910390f35b61013a60048036038101906101359190610aed565b61070c565b60405161014993929190610cd0565b60405180910390f35b813373ffffffffffffffffffffffffffffffffffffffff166001600083815260200190815260200160002060030160009054906101000a900473ffffffffffffffffffffffffffffffffffffffff1673ffffffffffffffffffffffffffffffffffffffff16146101f7576040517f08c379a00000000000000000000000000000000000000000000000000000000081526004016101ee90610d0e565b60405180910390fd5b600073ffffffffffffffffffffffffffffffffffffffff168273ffffffffffffffffffffffffffffffffffffffff161415610267576040517f08c379a000000000000000000000000000000000000000000000000000000000815260040161025e90610d2e565b60405180910390fd5b60006001600085815260200190815260200160002060030160009054906101000a900473ffffffffffffffffffffffffffffffffffffffff16905060016000858152602001908152602001600020600401819080600181540180825580915050600190039060005260206000200160009091909190916101000a81548173ffffffffffffffffffffffffffffffffffffffff021916908373ffffffffffffffffffffffffffffffffffffffff160217905550826001600086815260200190815260200160002060030160006101000a81548173ffffffffffffffffffffffffffffffffffffffff021916908373ffffffffffffffffffffffffffffffffffffffff1602179055508273ffffffffffffffffffffffffffffffffffffffff168173ffffffffffffffffffffffffffffffffffffffff16857f1080b2f211753e5090f26ef7ffdc6bb3e66a125c7290200d10b502160bb1f56660405160405180910390a450505050565b6000808154809291906103e190610f1b565b91905055506040518060a0016040528060005481526020018381526020018281526020013373ffffffffffffffffffffffffffffffffffffffff168152602001600067ffffffffffffffff811115610462577f4e487b7100000000000000000000000000000000000000000000000000000000600052604160045260246000fd5b6040519080825280602002602001820160405280156104905781602001602082028036833780820191505090505b5081525060016000805481526020019081526020016000206000820151816000015560208201518160010190805190602001906104ce9291906108da565b506040820151816002015560608201518160030160006101000a81548173ffffffffffffffffffffffffffffffffffffffff021916908373ffffffffffffffffffffffffffffffffffffffff160217905550608082015181600401908051906020019061053c929190610960565b509050503373ffffffffffffffffffffffffffffffffffffffff166000547fcb4990052f95f6057496d19524f6c3163f50af9f33f2c15b092928e03414323e60405160405180910390a35050565b60005481565b60016020528060005260406000206000915090508060000154908060010180546105b990610ee9565b80601f01602080910402602001604051908101604052809291908181526020018280546105e590610ee9565b80156106325780601f1061060757610100808354040283529160200191610632565b820191906000526020600020905b81548152906001019060200180831161061557829003601f168201915b5050505050908060020154908060030160009054906101000a900473ffffffffffffffffffffffffffffffffffffffff16905084565b60606001600083815260200190815260200160002060040180548060200260200160405190810160405280929190818152602001828054801561070057602002820191906000526020600020905b8160009054906101000a900473ffffffffffffffffffffffffffffffffffffffff1673ffffffffffffffffffffffffffffffffffffffff16815260200190600101908083116106b6575b50505050509050919050565b60606000806000600160008681526020019081526020016000206040518060a00160405290816000820154815260200160018201805461074b90610ee9565b80601f016020809104026020016040519081016040528092919081815260200182805461077790610ee9565b80156107c45780601f10610799576101008083540402835291602001916107c4565b820191906000526020600020905b8154815290600101906020018083116107a757829003601f168201915b50505050508152602001600282015481526020016003820160009054906101000a900473ffffffffffffffffffffffffffffffffffffffff1673ffffffffffffffffffffffffffffffffffffffff1673ffffffffffffffffffffffffffffffffffffffff168152602001600482018054806020026020016040519081016040528092919081815260200182805480156108b257602002820191906000526020600020905b8160009054906101000a900473ffffffffffffffffffffffffffffffffffffffff1673ffffffffffffffffffffffffffffffffffffffff1681526020019060010190808311610868575b5050505050815250509050806020015181604001518260600151935093509350509193909250565b8280546108e690610ee9565b90600052602060002090601f016020900481019282610908576000855561094f565b82601f1061092157805160ff191683800117855561094f565b8280016001018555821561094f579182015b8281111561094e578251825591602001919060010190610933565b5b50905061095c91906109ea565b5090565b8280548282559060005260206000209081019282156109d9579160200282015b828111156109d85782518260006101000a81548173ffffffffffffffffffffffffffffffffffffffff021916908373ffffffffffffffffffffffffffffffffffffffff16021790555091602001919060010190610980565b5b5090506109e691906109ea565b5090565b5b80821115610a035760008160009055506001016109eb565b5090565b6000610a1a610a1584610de6565b610db5565b905082815260208101848484011115610a3257600080fd5b610a3d848285610ea7565b509392505050565b600081359050610a5481611002565b92915050565b600082601f830112610a6b57600080fd5b8135610a7b848260208601610a07565b91505092915050565b600081359050610a9381611019565b92915050565b60008060408385031215610aac57600080fd5b600083013567ffffffffffffffff811115610ac657600080fd5b610ad285828601610a5a565b9250506020610ae385828601610a84565b9150509250929050565b600060208284031215610aff57600080fd5b6000610b0d84828501610a84565b91505092915050565b60008060408385031215610b2957600080fd5b6000610b3785828601610a84565b9250506020610b4885828601610a45565b9150509250929050565b6000610b5e8383610b6a565b60208301905092915050565b610b7381610e6b565b82525050565b610b8281610e6b565b82525050565b6000610b9382610e26565b610b9d8185610e49565b9350610ba883610e16565b8060005b83811015610bd9578151610bc08882610b52565b9750610bcb83610e3c565b925050600181019050610bac565b5085935050505092915050565b6000610bf182610e31565b610bfb8185610e5a565b9350610c0b818560208601610eb6565b610c1481610ff1565b840191505092915050565b6000610c2c601283610e5a565b91507f4e6f7420746865206c616e64206f776e657200000000000000000000000000006000830152602082019050919050565b6000610c6c601983610e5a565b91507f496e76616c6964206e6577206f776e65722061646472657373000000000000006000830152602082019050919050565b610ca881610e9d565b82525050565b60006020820190508181036000830152610cc88184610b88565b905092915050565b60006060820190508181036000830152610cea8186610be6565b9050610cf96020830185610c9f565b610d066040830184610b79565b949350505050565b60006020820190508181036000830152610d2781610c1f565b9050919050565b60006020820190508181036000830152610d4781610c5f565b9050919050565b6000602082019050610d636000830184610c9f565b92915050565b6000608082019050610d7e6000830187610c9f565b8181036020830152610d908186610be6565b9050610d9f6040830185610c9f565b610dac6060830184610b79565b95945050505050565b6000604051905081810181811067ffffffffffffffff82111715610ddc57610ddb610fc2565b5b8060405250919050565b600067ffffffffffffffff821115610e0157610e00610fc2565b5b601f19601f8301169050602081019050919050565b6000819050602082019050919050565b600081519050919050565b600081519050919050565b6000602082019050919050565b600082825260208201905092915050565b600082825260208201905092915050565b6000610e7682610e7d565b9050919050565b600073ffffffffffffffffffffffffffffffffffffffff82169050919050565b6000819050919050565b82818337600083830152505050565b60005b83811015610ed4578082015181840152602081019050610eb9565b83811115610ee3576000848401525b50505050565b60006002820490506001821680610f0157607f821691505b60208210811415610f1557610f14610f93565b5b50919050565b6000610f2682610e9d565b91507fffffffffffffffffffffffffffffffffffffffffffffffffffffffffffffffff821415610f5957610f58610f64565b5b600182019050919050565b7f4e487b7100000000000000000000000000000000000000000000000000000000600052601160045260246000fd5b7f4e487b7100000000000000000000000000000000000000000000000000000000600052602260045260246000fd5b7f4e487b7100000000000000000000000000000000000000000000000000000000600052604160045260246000fd5b6000601f19601f8301169050919050565b61100b81610e6b565b811461101657600080fd5b50565b61102281610e9d565b811461102d57600080fd5b5056fea26469706673582212208f3c66cb0c2772271196aac8c33f4eaf76e8a30533b2c99973bfc9153a13030164736f6c63430008000033",
  "immutableReferences": {},
  "source": "// SPDX-License-Identifier: MIT\npragma solidity ^0.8.0;\n\ncontract LandRegistry {\n    struct Land {\n        uint256 id;\n        string location;\n        uint256 area;\n        address owner;\n        address[] previousOwners;\n    }\n\n    uint256 public landCount;\n    mapping(uint256 => Land) public lands;\n\n    event LandRegistered(uint256 indexed id, address indexed owner);\n    event LandTransferred(uint256 indexed id, address indexed from, address indexed to);\n\n    modifier onlyOwner(uint256 _landId) {\n        require(lands[_landId].owner == msg.sender, \"Not the land owner\");\n        _;\n    }\n\n    function registerLand(string memory _location, uint256 _area) public {\n        landCount++;\n        lands[landCount] = Land(landCount, _location, _area, msg.sender, new address[](0));\n        emit LandRegistered(landCount, msg.sender);\n    }\n\n    function transferLand(uint256 _landId, address _newOwner) public onlyOwner(_landId) {\n        require(_newOwner != address(0), \"Invalid new owner address\");\n        address previousOwner = lands[_landId].owner;\n        lands[_landId].previousOwners.push(previousOwner);\n        lands[_landId].owner = _newOwner;\n        emit LandTransferred(_landId, previousOwner, _newOwner);\n    }\n\n    function getLandDetails(uint256 _landId) public view returns (string memory, uint256, address) {\n        Land memory land = lands[_landId];\n        return (land.location, land.area, land.owner);\n    }\n\n    function getPreviousOwners(uint256 _landId) public view returns (address[] memory) {\n        return lands[_landId].previousOwners;\n    }\n} \n",
  "sourcePath": "/home/skid-kid/web3-cohort/land-registry/contracts/LandRegistry.sol",
  "compiler": {
    "name": "solc",
    "version": "0.8.0+commit.c7dfd78e.Emscripten.clang"
  },
  "schemaVersion": "3.4.16",
  "updatedAt": "2025-01-19T12:25:51.939Z",
  "networkType": "ethereum",
  "devdoc": {
    "kind": "dev",
    "methods": {},
    "version": 1
  },
  "userdoc": {
    "kind": "user",
    "methods": {},
    "version": 1
  }
}